{
  "_format": "hh-sol-artifact-1",
  "contractName": "WavePortal",
  "sourceName": "contracts/wavePortal.sol",
  "abi": [
    {
      "inputs": [],
      "stateMutability": "nonpayable",
      "type": "constructor"
    },
    {
      "anonymous": false,
      "inputs": [
        {
          "indexed": true,
          "internalType": "address",
          "name": "from",
          "type": "address"
        },
        {
          "indexed": false,
          "internalType": "uint256",
          "name": "timestamp",
          "type": "uint256"
        },
        {
          "indexed": false,
          "internalType": "string",
          "name": "message",
          "type": "string"
        }
      ],
      "name": "NewWave",
      "type": "event"
    },
    {
      "inputs": [],
      "name": "getAllWaves",
      "outputs": [
        {
          "components": [
            {
              "internalType": "address",
              "name": "waver",
              "type": "address"
            },
            {
              "internalType": "string",
              "name": "message",
              "type": "string"
            },
            {
              "internalType": "uint256",
              "name": "timestamp",
              "type": "uint256"
            }
          ],
          "internalType": "struct WavePortal.Wave[]",
          "name": "",
          "type": "tuple[]"
        }
      ],
      "stateMutability": "view",
      "type": "function"
    },
    {
      "inputs": [],
      "name": "getTotalWaves",
      "outputs": [
        {
          "internalType": "uint256",
          "name": "",
          "type": "uint256"
        }
      ],
      "stateMutability": "view",
      "type": "function"
    },
    {
      "inputs": [
        {
          "internalType": "string",
          "name": "_message",
          "type": "string"
        }
      ],
      "name": "wave",
      "outputs": [],
      "stateMutability": "nonpayable",
      "type": "function"
    }
  ],
  "bytecode": "0x60806040523480156200001157600080fd5b506200005d6040518060400160405280601881526020017f54686973206973206120736d61727420436f6e747261637400000000000000008152506200006360201b620003ad1760201c565b620001f7565b62000103816040516024016200007a919062000170565b6040516020818303038152906040527f41304fac000000000000000000000000000000000000000000000000000000007bffffffffffffffffffffffffffffffffffffffffffffffffffffffff19166020820180517bffffffffffffffffffffffffffffffffffffffffffffffffffffffff83818316178352505050506200010660201b60201c565b50565b60008151905060006a636f6e736f6c652e6c6f679050602083016000808483855afa5050505050565b60006200013c8262000194565b6200014881856200019f565b93506200015a818560208601620001b0565b6200016581620001e6565b840191505092915050565b600060208201905081810360008301526200018c81846200012f565b905092915050565b600081519050919050565b600082825260208201905092915050565b60005b83811015620001d0578082015181840152602081019050620001b3565b83811115620001e0576000848401525b50505050565b6000601f19601f8301169050919050565b610c3080620002076000396000f3fe608060405234801561001057600080fd5b50600436106100415760003560e01c8063449d46c0146100465780639a2cdc0814610062578063bd43a90814610080575b600080fd5b610060600480360381019061005b91906106b2565b61009e565b005b61006a610211565b604051610077919061091e565b60405180910390f35b61008861025c565b604051610095919061087a565b60405180910390f35b60016000546100ad9190610a25565b6000819055506100f26040518060400160405280601381526020017f25732068617320776176656420746f207573210000000000000000000000000081525033610446565b600160405180606001604052803373ffffffffffffffffffffffffffffffffffffffff16815260200183815260200142815250908060018154018082558091505060019003906000526020600020906003020160009091909190915060008201518160000160006101000a81548173ffffffffffffffffffffffffffffffffffffffff021916908373ffffffffffffffffffffffffffffffffffffffff16021790555060208201518160010190805190602001906101b19291906105a7565b506040820151816002015550503373ffffffffffffffffffffffffffffffffffffffff167f5f7e16dc676677766a70e9c5628aa6c54ddb8b6e5188e2ae1e1f17f1ffbea7164283604051610206929190610939565b60405180910390a250565b60006102546040518060400160405280601681526020017f5765206861766520256420746f74616c207761766573000000000000000000008152506000546104e2565b600054905090565b60606001805480602002602001604051908101604052809291908181526020016000905b828210156103a457838290600052602060002090600302016040518060600160405290816000820160009054906101000a900473ffffffffffffffffffffffffffffffffffffffff1673ffffffffffffffffffffffffffffffffffffffff1673ffffffffffffffffffffffffffffffffffffffff16815260200160018201805461030990610af9565b80601f016020809104026020016040519081016040528092919081815260200182805461033590610af9565b80156103825780601f1061035757610100808354040283529160200191610382565b820191906000526020600020905b81548152906001019060200180831161036557829003601f168201915b5050505050815260200160028201548152505081526020019060010190610280565b50505050905090565b610443816040516024016103c1919061089c565b6040516020818303038152906040527f41304fac000000000000000000000000000000000000000000000000000000007bffffffffffffffffffffffffffffffffffffffffffffffffffffffff19166020820180517bffffffffffffffffffffffffffffffffffffffffffffffffffffffff838183161783525050505061057e565b50565b6104de828260405160240161045c9291906108be565b6040516020818303038152906040527f319af333000000000000000000000000000000000000000000000000000000007bffffffffffffffffffffffffffffffffffffffffffffffffffffffff19166020820180517bffffffffffffffffffffffffffffffffffffffffffffffffffffffff838183161783525050505061057e565b5050565b61057a82826040516024016104f89291906108ee565b6040516020818303038152906040527f9710a9d0000000000000000000000000000000000000000000000000000000007bffffffffffffffffffffffffffffffffffffffffffffffffffffffff19166020820180517bffffffffffffffffffffffffffffffffffffffffffffffffffffffff838183161783525050505061057e565b5050565b60008151905060006a636f6e736f6c652e6c6f679050602083016000808483855afa5050505050565b8280546105b390610af9565b90600052602060002090601f0160209004810192826105d5576000855561061c565b82601f106105ee57805160ff191683800117855561061c565b8280016001018555821561061c579182015b8281111561061b578251825591602001919060010190610600565b5b509050610629919061062d565b5090565b5b8082111561064657600081600090555060010161062e565b5090565b600061065d6106588461098e565b610969565b90508281526020810184848401111561067557600080fd5b610680848285610ab7565b509392505050565b600082601f83011261069957600080fd5b81356106a984826020860161064a565b91505092915050565b6000602082840312156106c457600080fd5b600082013567ffffffffffffffff8111156106de57600080fd5b6106ea84828501610688565b91505092915050565b60006106ff838361080c565b905092915050565b61071081610a7b565b82525050565b61071f81610a7b565b82525050565b6000610730826109cf565b61073a81856109f2565b93508360208202850161074c856109bf565b8060005b85811015610788578484038952815161076985826106f3565b9450610774836109e5565b925060208a01995050600181019050610750565b50829750879550505050505092915050565b60006107a5826109da565b6107af8185610a03565b93506107bf818560208601610ac6565b6107c881610be9565b840191505092915050565b60006107de826109da565b6107e88185610a14565b93506107f8818560208601610ac6565b61080181610be9565b840191505092915050565b60006060830160008301516108246000860182610707565b506020830151848203602086015261083c828261079a565b9150506040830151610851604086018261085c565b508091505092915050565b61086581610aad565b82525050565b61087481610aad565b82525050565b600060208201905081810360008301526108948184610725565b905092915050565b600060208201905081810360008301526108b681846107d3565b905092915050565b600060408201905081810360008301526108d881856107d3565b90506108e76020830184610716565b9392505050565b6000604082019050818103600083015261090881856107d3565b9050610917602083018461086b565b9392505050565b6000602082019050610933600083018461086b565b92915050565b600060408201905061094e600083018561086b565b818103602083015261096081846107d3565b90509392505050565b6000610973610984565b905061097f8282610b2b565b919050565b6000604051905090565b600067ffffffffffffffff8211156109a9576109a8610bba565b5b6109b282610be9565b9050602081019050919050565b6000819050602082019050919050565b600081519050919050565b600081519050919050565b6000602082019050919050565b600082825260208201905092915050565b600082825260208201905092915050565b600082825260208201905092915050565b6000610a3082610aad565b9150610a3b83610aad565b9250827fffffffffffffffffffffffffffffffffffffffffffffffffffffffffffffffff03821115610a7057610a6f610b5c565b5b828201905092915050565b6000610a8682610a8d565b9050919050565b600073ffffffffffffffffffffffffffffffffffffffff82169050919050565b6000819050919050565b82818337600083830152505050565b60005b83811015610ae4578082015181840152602081019050610ac9565b83811115610af3576000848401525b50505050565b60006002820490506001821680610b1157607f821691505b60208210811415610b2557610b24610b8b565b5b50919050565b610b3482610be9565b810181811067ffffffffffffffff82111715610b5357610b52610bba565b5b80604052505050565b7f4e487b7100000000000000000000000000000000000000000000000000000000600052601160045260246000fd5b7f4e487b7100000000000000000000000000000000000000000000000000000000600052602260045260246000fd5b7f4e487b7100000000000000000000000000000000000000000000000000000000600052604160045260246000fd5b6000601f19601f830116905091905056fea2646970667358221220e1f549e0d900c6f19f3b9e9eec636336d3f55f6d2e1b4d5e4957a09fcb9066b164736f6c63430008040033",
  "linkReferences": {},
  "deployedLinkReferences": {}
}